{
    "contractName": "Stacking",
    "abi": [
        {
            "inputs": [
                {
                    "internalType": "address",
                    "name": "tokenAddress",
                    "type": "address"
                }
            ],
            "stateMutability": "nonpayable",
            "type": "constructor"
        },
        {
            "anonymous": false,
            "inputs": [
                {
                    "indexed": true,
                    "internalType": "address",
                    "name": "depositor",
                    "type": "address"
                },
                {
                    "indexed": false,
                    "internalType": "uint256",
                    "name": "value",
                    "type": "uint256"
                }
            ],
            "name": "AddDeposit",
            "type": "event"
        },
        {
            "anonymous": false,
            "inputs": [
                {
                    "indexed": true,
                    "internalType": "address",
                    "name": "previousOwner",
                    "type": "address"
                },
                {
                    "indexed": true,
                    "internalType": "address",
                    "name": "newOwner",
                    "type": "address"
                }
            ],
            "name": "OwnershipTransferred",
            "type": "event"
        },
        {
            "anonymous": false,
            "inputs": [
                {
                    "indexed": true,
                    "internalType": "address",
                    "name": "depositor",
                    "type": "address"
                },
                {
                    "indexed": false,
                    "internalType": "uint256",
                    "name": "value",
                    "type": "uint256"
                }
            ],
            "name": "Transfer",
            "type": "event"
        },
        {
            "anonymous": false,
            "inputs": [
                {
                    "indexed": true,
                    "internalType": "address",
                    "name": "depositor",
                    "type": "address"
                },
                {
                    "indexed": false,
                    "internalType": "uint256",
                    "name": "value",
                    "type": "uint256"
                }
            ],
            "name": "WithdrawDeposit",
            "type": "event"
        },
        {
            "anonymous": false,
            "inputs": [
                {
                    "indexed": true,
                    "internalType": "address",
                    "name": "depositor",
                    "type": "address"
                },
                {
                    "indexed": false,
                    "internalType": "uint256",
                    "name": "value",
                    "type": "uint256"
                }
            ],
            "name": "Workflow",
            "type": "event"
        },
        {
            "inputs": [
                {
                    "internalType": "uint256",
                    "name": "value",
                    "type": "uint256"
                }
            ],
            "name": "addDeposit",
            "outputs": [
                {
                    "internalType": "bool",
                    "name": "",
                    "type": "bool"
                }
            ],
            "stateMutability": "nonpayable",
            "type": "function"
        },
        {
            "inputs": [
                {
                    "internalType": "address",
                    "name": "account",
                    "type": "address"
                }
            ],
            "name": "balanceOf",
            "outputs": [
                {
                    "internalType": "uint256",
                    "name": "",
                    "type": "uint256"
                }
            ],
            "stateMutability": "view",
            "type": "function"
        },
        {
            "inputs": [],
            "name": "bonusAmount",
            "outputs": [
                {
                    "internalType": "uint256",
                    "name": "",
                    "type": "uint256"
                }
            ],
            "stateMutability": "view",
            "type": "function"
        },
        {
            "inputs": [
                {
                    "internalType": "uint256",
                    "name": "value",
                    "type": "uint256"
                }
            ],
            "name": "deductBonuses",
            "outputs": [
                {
                    "internalType": "bool",
                    "name": "",
                    "type": "bool"
                }
            ],
            "stateMutability": "nonpayable",
            "type": "function"
        },
        {
            "inputs": [
                {
                    "internalType": "uint256",
                    "name": "value",
                    "type": "uint256"
                }
            ],
            "name": "depositVault",
            "outputs": [
                {
                    "internalType": "bool",
                    "name": "",
                    "type": "bool"
                }
            ],
            "stateMutability": "nonpayable",
            "type": "function"
        },
        {
            "inputs": [],
            "name": "owner",
            "outputs": [
                {
                    "internalType": "address",
                    "name": "",
                    "type": "address"
                }
            ],
            "stateMutability": "view",
            "type": "function"
        },
        {
            "inputs": [],
            "name": "renounceOwnership",
            "outputs": [],
            "stateMutability": "nonpayable",
            "type": "function"
        },
        {
            "inputs": [
                {
                    "internalType": "uint256",
                    "name": "value",
                    "type": "uint256"
                }
            ],
            "name": "setBonusCoefficient",
            "outputs": [
                {
                    "internalType": "bool",
                    "name": "",
                    "type": "bool"
                }
            ],
            "stateMutability": "nonpayable",
            "type": "function"
        },
        {
            "inputs": [
                {
                    "internalType": "uint256",
                    "name": "value",
                    "type": "uint256"
                }
            ],
            "name": "setRewardCoefficient",
            "outputs": [
                {
                    "internalType": "bool",
                    "name": "",
                    "type": "bool"
                }
            ],
            "stateMutability": "nonpayable",
            "type": "function"
        },
        {
            "inputs": [
                {
                    "internalType": "address",
                    "name": "newOwner",
                    "type": "address"
                }
            ],
            "name": "transferOwnership",
            "outputs": [],
            "stateMutability": "nonpayable",
            "type": "function"
        },
        {
            "inputs": [
                {
                    "internalType": "uint256",
                    "name": "value",
                    "type": "uint256"
                }
            ],
            "name": "withdrawDeposit",
            "outputs": [
                {
                    "internalType": "bool",
                    "name": "",
                    "type": "bool"
                }
            ],
            "stateMutability": "nonpayable",
            "type": "function"
        },
        {
            "inputs": [
                {
                    "internalType": "uint256",
                    "name": "value",
                    "type": "uint256"
                }
            ],
            "name": "withdrawDepositWithoutReward",
            "outputs": [
                {
                    "internalType": "bool",
                    "name": "",
                    "type": "bool"
                }
            ],
            "stateMutability": "nonpayable",
            "type": "function"
        },
        {
            "inputs": [
                {
                    "internalType": "uint256",
                    "name": "value",
                    "type": "uint256"
                }
            ],
            "name": "withdrawVault",
            "outputs": [
                {
                    "internalType": "bool",
                    "name": "",
                    "type": "bool"
                }
            ],
            "stateMutability": "nonpayable",
            "type": "function"
        },
        {
            "inputs": [
                {
                    "internalType": "bool",
                    "name": "onPause",
                    "type": "bool"
                }
            ],
            "name": "workflow",
            "outputs": [
                {
                    "internalType": "bool",
                    "name": "",
                    "type": "bool"
                }
            ],
            "stateMutability": "nonpayable",
            "type": "function"
        }
    ],
    "bytecode": "608060405234801561001057600080fd5b50604051610e75380380610e7583398101604081905261002f916100ad565b6100383361005d565b600180546001600160a01b0319166001600160a01b03929092169190911790556100dd565b600080546001600160a01b038381166001600160a01b0319831681178455604051919092169283917f8be0079c531659141344cd1fd0a4f28419497f9722a3daafe3b4186f6b6457e09190a35050565b6000602082840312156100bf57600080fd5b81516001600160a01b03811681146100d657600080fd5b9392505050565b610d89806100ec6000396000f3fe608060405234801561001057600080fd5b50600436106100ea5760003560e01c8063715018a61161008c578063a6f1fd5111610066578063a6f1fd51146101cf578063abadaf9a146101e2578063b40afc1c14610213578063f2fde38b1461022657600080fd5b8063715018a6146101975780638ce479ae146101a15780638da5cb5b146101b457600080fd5b80635089e2a5116100c85780635089e2a51461013d5780635a02ec19146101505780636cdf89031461016357806370a082311461017657600080fd5b806322ecf7e1146100ef578063283392131461011757806333289a461461012a575b600080fd5b6101026100fd366004610ba7565b610239565b60405190151581526020015b60405180910390f35b610102610125366004610ba7565b61025a565b610102610138366004610ba7565b610297565b61010261014b366004610ba7565b61033f565b61010261015e366004610ba7565b6103a1565b610102610171366004610ba7565b6103f6565b610189610184366004610bc0565b61042a565b60405190815260200161010e565b61019f610494565b005b6101026101af366004610bfe565b6104ca565b6000546040516001600160a01b03909116815260200161010e565b6101026101dd366004610ba7565b61050c565b3360009081526006602090815260408083205460078352818420546002546008909452919093205492020203610189565b610102610221366004610ba7565b61066c565b61019f610234366004610bc0565b6106b4565b600033610246818461074f565b6102513082856107d4565b50600192915050565b600080546001600160a01b0316331461028e5760405162461bcd60e51b815260040161028590610c1b565b60405180910390fd5b50600355600190565b60045460009060ff16156102bd5760405162461bcd60e51b815260040161028590610c50565b33826102c88261042a565b10156102e65760405162461bcd60e51b815260040161028590610cad565b6102f33082856000610859565b806001600160a01b03167f195ddc41d185a27fe901831dcad44dd85716c95be78b1d71aa42393697966d408460405161032e91815260200190565b60405180910390a250600192915050565b60045460009060ff16156103655760405162461bcd60e51b815260040161028590610c50565b336000818152600660205260409020548311156103945760405162461bcd60e51b815260040161028590610cad565b6102f33082856001610859565b600080546001600160a01b031633146103cc5760405162461bcd60e51b815260040161028590610c1b565b6103d73330846107d4565b81600560008282546103e99190610cee565b9091555060019392505050565b600080546001600160a01b031633146104215760405162461bcd60e51b815260040161028590610c1b565b50600255600190565b6001600160a01b038116600090815260066020818152604080842054600783528185205460035460098552838720546002546008875294882054969095529082029081029390930393610484939092029190910390610cee565b61048e9190610cee565b92915050565b6000546001600160a01b031633146104be5760405162461bcd60e51b815260040161028590610c1b565b6104c86000610a83565b565b600080546001600160a01b031633146104f55760405162461bcd60e51b815260040161028590610c1b565b506004805460ff1916911515919091179055600190565b60045460009060ff16156105325760405162461bcd60e51b815260040161028590610c50565b336000818152600660205260409020541561059a5760405162461bcd60e51b815260206004820152602260248201527f546865206164647265737320616c7265616479206861732061206465706f7369604482015261742160f01b6064820152608401610285565b6001546040516370a0823160e01b81526001600160a01b038381166004830152859216906370a0823190602401602060405180830381865afa1580156105e4573d6000803e3d6000fd5b505050506040513d601f19601f820116820180604052508101906106089190610d06565b11156106265760405162461bcd60e51b815260040161028590610cad565b610631813085610ad3565b806001600160a01b03167f44e9506c3f7c5a873c2cda7f52bccc509a7b4455d97387fe810c56fe7051cb768460405161032e91815260200190565b600080546001600160a01b031633146106975760405162461bcd60e51b815260040161028590610c1b565b6106a23033846107d4565b81600560008282546103e99190610d1f565b6000546001600160a01b031633146106de5760405162461bcd60e51b815260040161028590610c1b565b6001600160a01b0381166107435760405162461bcd60e51b815260206004820152602660248201527f4f776e61626c653a206e6577206f776e657220697320746865207a65726f206160448201526564647265737360d01b6064820152608401610285565b61074c81610a83565b50565b6001600160a01b038216600090815260066020908152604080832054600783528184205460025460089094529190932054920202038111156107a35760405162461bcd60e51b815260040161028590610cad565b6001600160a01b038216600090815260086020526040812080548392906107cb908490610cee565b90915550505050565b6001546040516323b872dd60e01b81526001600160a01b038581166004830152848116602483015260448201849052909116906323b872dd906064016020604051808303816000875af115801561082f573d6000803e3d6000fd5b505050506040513d601f19601f820116820180604052508101906108539190610d36565b50505050565b80156108e4576001600160a01b0383166000908152600660205260409020548211156108975760405162461bcd60e51b815260040161028590610cad565b6001600160a01b038316600090815260066020526040812080548492906108bf908490610d1f565b90915550506001600160a01b0383166000908152600760205260409020429055610a78565b6001600160a01b038316600090815260066020908152604080832054600783528184205460025460089094529190932054859391909102909102038181111561093a57610931858361074f565b60009150610984565b6001600160a01b0385166000908152600860205260409020546109689086906109639085610d1f565b61074f565b6001600160a01b03851660009081526008602052604090205491505b8115610a26576001600160a01b03851660009081526006602090815260408083205460078352818420546003546009909452919093205492020203828111156109da576109d18684610b0c565b60009250610a24565b6001600160a01b038616600090815260096020526040902054610a08908790610a039086610d1f565b610b0c565b6001600160a01b03861660009081526009602052604090205492505b505b8115610a75576001600160a01b03851660009081526006602052604081208054849290610a54908490610d1f565b90915550506001600160a01b03851660009081526007602052604090204290555b50505b6108538484846107d4565b600080546001600160a01b038381166001600160a01b0319831681178455604051919092169283917f8be0079c531659141344cd1fd0a4f28419497f9722a3daafe3b4186f6b6457e09190a35050565b610ade8383836107d4565b6001600160a01b03909216600090815260066020908152604080832094909455600790529190912042905550565b6001600160a01b038216600090815260066020908152604080832054600783528184205460035460099094529184205491029091020390508060055410610ba2578060056000828254610b5f9190610d1f565b90915550610b6f90508183610d1f565b6001600160a01b038416600090815260096020526040812080549294508492909190610b9c908490610cee565b90915550505b505050565b600060208284031215610bb957600080fd5b5035919050565b600060208284031215610bd257600080fd5b81356001600160a01b0381168114610be957600080fd5b9392505050565b801515811461074c57600080fd5b600060208284031215610c1057600080fd5b8135610be981610bf0565b6020808252818101527f4f776e61626c653a2063616c6c6572206973206e6f7420746865206f776e6572604082015260600190565b6020808252603d908201527f5468697320616374696f6e2063616e6e6f7420626520706572666f726d65642060408201527f7768696c652074686520636f6e74726163742069732070617573656421000000606082015260800190565b6020808252601190820152704e6f7420656e6f7567682066756e64732160781b604082015260600190565b634e487b7160e01b600052601160045260246000fd5b60008219821115610d0157610d01610cd8565b500190565b600060208284031215610d1857600080fd5b5051919050565b600082821015610d3157610d31610cd8565b500390565b600060208284031215610d4857600080fd5b8151610be981610bf056fea264697066735822122070ac654d25cefa49470154b119b81f3c0df0c0f6998869cdbb5968f236af857c64736f6c634300080c0033",
    "sourcePath": "c:/Users/км/Desktop/Blockchain projects/StakingContract/contracts/StackingContract.sol",
    "compiler": {
        "name": "solc",
        "version": "0.8.12+commit.f00d7308"
    },
    "functionHashes": {
        "addDeposit(uint256)": "a6f1fd51",
        "balanceOf(address)": "70a08231",
        "bonusAmount()": "abadaf9a",
        "deductBonuses(uint256)": "22ecf7e1",
        "depositVault(uint256)": "5a02ec19",
        "owner()": "8da5cb5b",
        "renounceOwnership()": "715018a6",
        "setBonusCoefficient(uint256)": "6cdf8903",
        "setRewardCoefficient(uint256)": "28339213",
        "transferOwnership(address)": "f2fde38b",
        "withdrawDeposit(uint256)": "33289a46",
        "withdrawDepositWithoutReward(uint256)": "5089e2a5",
        "withdrawVault(uint256)": "b40afc1c",
        "workflow(bool)": "8ce479ae"
    },
    "gasEstimates": {
        "creation": {
            "codeDepositCost": "693000",
            "executionCost": "infinite",
            "totalCost": "infinite"
        },
        "external": {
            "addDeposit(uint256)": "infinite",
            "balanceOf(address)": "infinite",
            "bonusAmount()": "8852",
            "deductBonuses(uint256)": "infinite",
            "depositVault(uint256)": "infinite",
            "owner()": "2368",
            "renounceOwnership()": "28137",
            "setBonusCoefficient(uint256)": "24594",
            "setRewardCoefficient(uint256)": "24573",
            "transferOwnership(address)": "28362",
            "withdrawDeposit(uint256)": "infinite",
            "withdrawDepositWithoutReward(uint256)": "infinite",
            "withdrawVault(uint256)": "infinite",
            "workflow(bool)": "26771"
        },
        "internal": {
            "_addDeposit(address,address,uint256)": "infinite",
            "_calculateBenefit(uint256,uint256,uint256,uint256)": "infinite",
            "_deductBonuses(address,uint256)": "infinite",
            "_deductRewords(address,uint256)": "infinite",
            "_transferFrom(address,address,uint256)": "infinite",
            "_withdrawDeposit(address,address,uint256,bool)": "infinite"
        }
    }
}